:020000041000EA
:1000000000B5324B212058609868022188439860DF
:10001000D860186158612E4B002199600221596106
:100020000121F02299502B49196001219960352056
:1000300000F044F80222904214D00621196600F024
:1000400034F8196E01211966002018661A6600F04E
:100050002CF8196E196E196E052000F02FF8012189
:100060000842F9D1002199601B49196000215960AB
:100070001A491B48016001219960EB211966A021F2
:10008000196600F012F800219960164914480160C1
:100090000121996001BC002800D000471248134993
:1000A000086003C880F30888084703B5996A0420EC
:1000B0000142FBD001200142F8D103BD02B5186610
:1000C0001866FFF7F2FF186E186E02BD00000240BE
:1000D000000000180000070000035F00212200005C
:1000E000F4000018222000A00001001008ED00E03C
:1000F00000000000000000000000000074B24E7A12
:1001000000200420F7010010C3010010C5010010F9
:10011000C1010010C1010010C1010010C101001097
:10012000C1010010C1010010C1010010C701001081
:10013000C1010010C1010010C9010010CB01001065
:10014000CD010010CD010010CD010010CD01001037
:10015000CD010010CD010010CD010010CD01001027
:10016000CD010010CD010010CD010010CD01001017
:10017000CD010010CD010010CD010010CD01001007
:10018000CD010010CD010010CD010010CD010010F7
:10019000CD010010CD010010CD010010CD010010E7
:1001A000CD010010CD010010CD010010CD010010D7
:1001B000CD010010CD010010CD010010CD010010C7
:1001C00000BE00BE00BE00BE00BE00BEEFF3058054
:1001D000103800BEF2EB887124DF04104CDF0410ED
:1001E0003402001090A31AE700201F49086006C8D7
:1001F00081F3088810471D48006800282FD10DA4FE
:100200000ECC002902D000F012F8F9E71849194A7B
:10021000002000E001C19142FCD1174988471749ED
:1002200088471749884700BEFDE701C901C29A42C5
:10023000FBD370474CDF0410C0000020A80600204C
:1002400034E50410000004200000042034E504100C
:10025000001004200010042000000000704709482E
:1002600003F0F6F90047000008ED00E0000000D0C0
:10027000C8060020E4C5002049230010990300109F
:10028000092300105756000006005250ABB36053CC
:10029000CC28011006005250861C0302DC280110F5
:1002A000060052505422A29DF02801100500525021
:1002B000DE65F46834E50410F8B5C0460648074921
:1002C000091A8B10C90FC91810B5491003D0044B77
:1002D000002B00D0984710BDA8060020A8060020DB
:1002E00000000000054B10B5002B03D00449054861
:1002F00000E000BFFFF7E2FF10BDC04600000000B5
:100300006CB30020181C011030B583B00AF050FA0D
:10031000051E23D0194801A90DF00CF9A022920066
:100320001121362005F044FE041E1BD0428940688E
:10033000134903F0EBFD134B01AA210028000AF03A
:100340008DF9011E15D0104803F070FF200005F054
:10035000F1FD28000AF00AFA03B030BD0B4803F0A3
:1003600035FFF9E70A4803F031FF28000AF0FEF9EB
:10037000F2E7084803F02AFFE8E7C046301C011006
:10038000581C01106C0700006C1C0110181C011097
:10039000401C0110881C011010B582B003F052FF00
:1003A0000DF0DEFB00282CD10DF0E4FA1B4803F021
:1003B0000DFF1B491B481C4B1C4A0DF094FB0028E9
:1003C00026D11B4803F002FF1A481B4BC15C1B4B94
:1003D000C25C1B4BC35C1B4C045D1B48009403F0C8
:1003E00025FF1A4803F0F2FEFA20800001F0E5F93B
:1003F000104B174A9958174803F018FFFFF784FF6E
:10040000EFE7154803F0E2FE0120404202B010BDC4
:10041000124803F0DBFE0120F8E7C046BC1C0110C7
:10042000D41C0110E01C01103075000004004000D5
:10043000FC1C01108C0A0020E8080000E9080000FC
:10044000EA080000EB080000081D0110201D011043
:100450006C080000301D0110A81C0110E81C0110E0
:1004600010B58300084A944663441A6840246240E9
:10047000803414408022520113431C60C000034B9F
:100480009C466044416010BD04C0014000400140F2
:1004900080000B4B9C46604400290DD00823002AA5
:1004A0000CD004221343026853400C221A408023CC
:1004B0005B0103431A6070470023F0E70022F1E775
:1004C00004C00140002909D08000094B9C466044CB
:1004D00080239B01034302221A6070478000044B73
:1004E0009C466044C0239B01034302221A60F4E748
:1004F00004C0014070B5D0231B061B68094C9D0049
:100500002C59204207D1074D9B0004435C510D201C
:1005100000F0E8F970BD044B044A0548CC2101F015
:10052000F7FEC04650C30020441D01108C5C011032
:10053000701D011010B50400D0231B061A680B4B68
:100540009200D35818420BD00D2000F0D3FAD023DC
:100550001B061B6805499B005A58A2435A5010BD00
:10056000034B044A0448D62101F0D2FE50C30020B8
:10057000B41D0110685C0110701D011007230340B9
:100580009B00C00899403C308000014BC15070472F
:1005900000400140F8B507000C0016001D00FFF7F1
:1005A000EDFFFB089B00ED180720384080008440D9
:1005B000002E04D080239B012B431C60F8BDC02378
:1005C0009B012B431C60F9E710B5D0231B061B6869
:1005D000002B03D0024BFFF7DDFF10BD014BFAE704
:1005E000304101400041014010B501238340D02239
:1005F0001206936293610521FFF732FF10BD0000E0
:10060000034B1B6802201840431E9841C0B270473C
:1006100000C00640EFF3108072B6034B1B68002B3E
:10062000FBD0BFF35F8F70472C0100D0BFF35F8F0B
:10063000024B00221A6080F3108870472C0100D012
:10064000F8B506000C001500FFF7E4FFE308F71803
:10065000F15C07222240012393400B4205D1DBB21B
:100660000B433B70FFF7E2FFF8BD2100280001F0CB
:10067000E7FEF0B583B00600019114001F00FFF7FC
:10068000C9FF00E00134BC420CD8E308F518F35C64
:100690000721214001228A401A42F3D1D2B21A43E3
:1006A0002A7001E001246442FFF7C0FF002C02DB46
:1006B000200003B0F0BD019B002BF9D0089801F099
:1006C000BFFE000070B505000C00FFF7A3FFE308B4
:1006D000EE18EA5C0721214001238B40134204D02D
:1006E0009A433270FFF7A2FF70BD034B034A0448E0
:1006F000332101F00DFEC046E01D0110C05C011069
:10070000001E0110002307E0054A9A189200BFF36B
:100710005F8F0021116001331F2BF5D97047C04650
:1007200040000034054A1078431CDBB21370172BCD
:1007300002D9130010221A707047C04678050020B5
:10074000074B9B68103080001950BFF35F8FBFF3D9
:100750005F8F044B0021196082F310887047C046F8
:1007600000ED00E0240100D01F23181A704700009C
:1007700010B50388DA0A1C2A05D15B055B15023324
:100780005B00C01810BD034B034A0448B12101F0BF
:10079000BFFDC046481E0110245D0110601E0110FF
:1007A00010B5091A0B1F0A4A88180A4A904208D83D
:1007B000C90706D45B105B055B0D0748184380B280
:1007C00010BD064B064A0748A32101F0A1FDC04613
:1007D000FC070000FE0F000000E0FFFFA41E011058
:1007E000185D0110601E011010B5091A04394A087D
:1007F000090B08D14905490D064B0B430380064BF5
:100800001343438010BD054B054A0648AB2101F058
:100810007FFDC04600F0FFFF00F8FFFFD41E01106F
:10082000EC5C0110601E011001238340034A106834
:100830001840431E9841C0B27047C04600E100E036
:10084000002904D0034B1860034B18607047034B1A
:100850001860FBE780E200E000E100E080E100E0FA
:1008600010B5012383401800FFF7EAFF10BD000018
:1008700001238340014A13607047C04600E200E054
:10088000024B9B6810308000C058704700ED00E0BC
:1008900070B504000D00EFF3108672B60C4B1B68A8
:1008A000002BFBD0BFF35F8F2000FFF7E9FF094B60
:1008B000984201D0A84205D1320029002000FFF75C
:1008C0003FFF70BD044B054A0548862101F020FD1D
:1008D000240100D0CD010010E41E01104C5D011078
:1008E000601E0110F0B5DE4657464E464546E0B55F
:1008F00089B0814601911500EFF3108A72B66D4BF5
:100900001B68002BFBD0BFF35F8F6B4B00269E57FD
:10091000002E41DB7400A419A400684824180622A4
:10092000A256654B1A70664B9A684B4610339B0073
:10093000D35898461F00181A2F2839D9614B98456B
:1009400030D105AF604B3B80604973009B469819DE
:1009500080005A4B984640440230FFF721FF7880D0
:100960005B4BBB80FF23BB71FD71019B0793330081
:100970005B449B00434407CF07C301231C43A046AD
:10098000524641464846FFF7DBFE09B0F0BCBB4685
:10099000B246A946A046F0BD4E4B4F4A4F48D7211C
:1009A00001F0B6FC4E4B4C4A4C48DE2101F0B0FC45
:1009B00001380C2102F0A0FE002912D101239F432F
:1009C000BB463B000027DA79AA4211D906215956C5
:1009D00000290CDB4A005218920038491F008B187E
:1009E000F1E7404B3C4A3D48EA2101F091FC1F00F1
:1009F000002F2ED005AB3C4A1A80813A5A8006233C
:100A0000FB560293002B17DA384805AB9B469880BB
:100A1000029A9A71DD71019A0792381D2100FFF741
:100A2000BFFEB880BE71254B7200921992009B18D0
:100A30005A4613CA13C3A3E7381DFFF799FE0100F6
:100A40007000801980001D4BC0180430FFF7A8FE0D
:100A5000DBE705AF1C4B3B801C49730002939B19DD
:100A60009B00164A90461A0042440392901CFFF7DE
:100A700097FE7880039A101D5946FFF791FEB880C3
:100A80001B4B5A464146521A524153431B0DBB71F0
:100A9000FD71019A0792029B9B199B00434407CF6B
:100AA00007C3114B5A461380813B538001231C43DB
:100AB000A04665E7240100D0D7C500207C050020B2
:100AC00000ED00E0CD01001000A1FFFFAC0500200B
:100AD00001BDFFFF1C1F0110345D0110601E0110DD
:100AE000441F01106C1F01100148000001BD0000EF
:100AF000AAAA0000F0B5CE46474680B583B00600EE
:100B00000D00EFF3108872B64F4B1B68002BFBD023
:100B1000BFF35F8F4D4B9A6834001034A300D75851
:100B20004B4B9F4207D0AF4200D18BE00197494B1E
:100B3000FB1A2F2B09D9424639003000FFF700FE7F
:100B400003B0C0BCB946B046F0BD3000FFF76CFE44
:100B5000814600213000FFF783FEBFF35F8FEFF384
:100B60000581002901D08C4211D10123019C9C43B5
:100B70000020A368AB4212D00622A256002A0DDB49
:100B800053009B189B00334A2000D418F1E7324BE6
:100B9000324A36213248FF3101F0BAFB2000AB4225
:100BA00049D106256557002D2BDB2A4B6A005219C7
:100BB00092009B189A68A260DA79E2719B795BB225
:100BC000A371002B0FDA2748A080224B6A0052192C
:100BD00092009B18244A117899711570494630008B
:100BE000FFF73EFEA7E7680040198000194BC018C8
:100BF0000430FFF7BDFD0100231D1800FFF7D0FDF5
:100C0000E2E7002912D100280ED0FF238371174B91
:100C1000838015490B78A3710E4A154BA41A6441C1
:100C200063431B0D0B70D9E7094FF2E71149201DF3
:100C3000FFF7DAFDD2E7104B084A6A210848FF3176
:100C400001F066FB024F76E7240100D000ED00E0E2
:100C5000CD0100107C050020E01F0110045D011093
:100C6000601E011001BD0000D7C5002001BDFFFFBF
:100C7000AAAA0000B60500201420011010B5032315
:100C800004009C43064A9446644422681840C0000D
:100C9000FC3383409A43130081400B43236010BD13
:100CA00000E400E070B5012202432E4BD31A2F2B33
:100CB00028D8EFF30583002B2BD0EFF3108C72B6FE
:100CC000294909680029FBD0BFF35F8F254C2749CC
:100CD00005002D1B6D416943090D4CB224498968FB
:100CE0009B00C95891421BD00021032932D81D4BCB
:100CF0004A00521892009B189B795BB2A3421FD006
:100D00000131F2E71B4B1C4AC7211C48490001F086
:100D1000FFFA1B4B184A92211848FF3101F0F8FAEC
:100D2000134A92681749D150174B1A7882711C7078
:100D3000BFF35F8F0C4B00221A608CF3108870BDDC
:100D4000084B4A005518AD005D19FF26AE710F4AD9
:100D5000AA80E9E70E4B084AD1210848490001F072
:100D6000D7FAC0467C050020240100D0AAAA0000C2
:100D700000ED00E01C200110D05C0110601E01108D
:100D800044200110CD010010D7C5002001BDFFFF98
:100D9000502001100022044B02E0044902C301323A
:100DA000072AFAD97047C04600E400E080808080BE
:100DB00010B5FFF7D9FC0100024B1800FFF782FCC9
:100DC00010BDC046E0C5002010B582B00100074C40
:100DD000074B0093052300222000FFF74AFC002860
:100DE00001DB1F23181A02B010BDC046E0C5002069
:100DF0005820011070B504000E001500FFF792FC9A
:100E00000100200000F006F8A680E580BFF35F8FA8
:100E100070BD0000024B9C46614489000160704730
:100E20004000003410B50400FFF77CFC01002000F6
:100E3000FFF7F0FFFF232371BFF35F8F10BD10B5E5
:100E40000400FFF76FFC01002000FFF7E3FFFF2322
:100E5000237100236371BFF35F8F10BD084B5B6A82
:100E6000994209D8064A926A824207D2994201D031
:100E7000012002E0002000E0002070470120FCE794
:100E80000040054010B500290AD003681B7B8B4247
:100E900006D38068054B9C4661440901401810BD8B
:100EA000034B044A04483C2101F032FAFFFFFF0FD4
:100EB00008210110B05E01102C210110F8B50400CA
:100EC0001700FFF7DFFF0668456839002000FFF7CD
:100ED000D9FF026843680120AB4201D802D000204C
:100EE000C0B2F8BDB242FBD8F9E7000010B5002B44
:100EF00002DB0260436010BD024B034A03483F21FE
:100F000001F006FA682101107C5E011084210110B5
:100F100010B582B004000498059912184B41002BBB
:100F200009DB6846FFF7E2FF009A019B22606360DD
:100F3000200002B010BD01225242014BF1E7C04631
:100F4000FFFFFF7F10B5002908D0037B8B4205D33C
:100F500000684B005B18033BC01810BD024B034AEE
:100F60000348682101F0D4F9D0210110585E011026
:100F7000EC21011010B5437B8B4201D1012010BD43
:100F8000FFF7E0FF8378002B01D10020F7E7012075
:100F9000F5E770B50400857B002D01D1280070BDF8
:100FA0002900FFF7CFFF4378A373002B00D1E37331
:100FB0000023837043700370F0E70000F8B506006B
:100FC0000C001500FFF7BEFF0700002C0DD0002D10
:100FD00011D0AC4215D029003000FFF7B3FF847068
:100FE0003B78002B13D13D70F8BD0A4B0A4A0B48E1
:100FF0006F2101F08DF90A4B074A0848702101F072
:1010000087F9084B044A0548712101F081F94370C2
:101010003D70E9E73C220110345E0110EC21011023
:10102000482201105422011070B506000D00140072
:10103000002914D0002A14D04368806898470028FB
:1010400006D0220029003000FFF7B8FF280007E093
:101050002A0021003000FFF7B1FF200000E010005F
:1010600070BD0800FCE7000070B504000D1E0CD038
:10107000FFF768FF0023837043700370617B2A00D1
:101080002000FFF7D1FF607370BD034B034A044893
:10109000A52101F03DF9C0466C220110485E011007
:1010A000EC21011070B504000D1E0FD0FFF762FF98
:1010B00000280BD1E17B00290ED1A37B002B03D1AB
:1010C000E37B002B0DD1A573E57370BD084B094A76
:1010D0000948F62101F01CF92000FFF733FF4570A5
:1010E000EBE7064B034A0448FB2101F011F9C04627
:1010F00070220110245E0110EC21011094220110D5
:1011000010B5002907D003681B7B8B4203D3C0684E
:101110000139401810BD034B034A0448412101F036
:10112000F7F8C04608210110105E01102C210110B3
:1011300070B505000C00080000F0CAFC0949200049
:1011400000F00AFCFFF7EEFA074B9C466044800073
:1011500068602C75D0231B061B786B75034BA400AD
:10116000E55070BD7D1200104000003484B30020B3
:101170000A4B1A68EFF3108172B61368002BFCD08B
:10118000BFF35F8F054B1B68BFF35F8F00221A60B0
:1011900081F3108840BF00200021704774C50020F3
:1011A00010B582B0040000F099FB02000B00684605
:1011B000FFF79CFE009A019B22606360200002B052
:1011C00010BD70B584B0040016001D0002A8FFF722
:1011D000E7FF029A039B009601952000FFF798FE17
:1011E000200004B070BD0000F0B583B0070001928C
:1011F0001D000AAB1C780BAB1E78002C0BD00068CE
:101200002100FFF7B7FE002809D0194B194A1A48E8
:10121000672101F07DF80068FFF7BBFE0400002C99
:1012200002D1200003B0F0BD21003800FFF72AFEF4
:10123000019B03604560089B8360099BC36038681D
:101240002100FFF711FFA042EBD1387D019A2B005E
:1012500000F0CAFB051E01D0002E04D00C9B002B11
:10126000DFD01D70DDE73868210000F077FDF5E77D
:10127000A8220110645E01102C210110F0B5DE4699
:1012800057464E464546E0B58FB00B900021794B4E
:101290008200D458894683E029002000FFF7F2FD40
:1012A000804602684368921BBB41002B09DD434620
:1012B0001A685B680B9800F097FB0023984600269D
:1012C0008AE0002B01D1002AF1D10021584600F01C
:1012D0003BFD0700A84215D143461A685B68089297
:1012E000099343469E68DB689846002E10D029007B
:1012F0002000FFF705FF037899461B021F43276173
:10130000002069E05C4B5D4A5D488E2101F000F8E9
:101310005C4B5A4A5A48922100F0FAFF2369002B8D
:1013200000D177E0BB4219D10698079900234242C9
:101330008B4100920193089A099B0CA8FFF7E8FDE6
:101340000C9A0D9B002104910131039102954146B5
:10135000019100962000FFF747FF16E04A4B474AED
:101360004748A12100F0D4FF069A079B002B01D12A
:10137000002A52D120682900FFF794FE290020009E
:10138000FFF7BEFE03780133037000232361626818
:10139000BFF35F8F13608AF310880120002861D0AB
:1013A0000CA8FFF7FDFE0C9E0D9F00220023089263
:1013B00009936268EFF3108A72B61368002BFCD0B1
:1013C000BFF35F8F23689B465D7B002D00D063E7F2
:1013D00000239846002600206368BFF35F8F002239
:1013E0001A608AF31088002ED8D04B461F022F4374
:1013F00041463800B047069007916268EFF3108AC3
:1014000072B61368002BFCD0BFF35F8F079B002BD5
:1014100000DA83E7079B002BA6DD2369002BA9D008
:10142000BB4219D10CA8FFF7BBFE0C9A0D9B069886
:101430000799009001910CA8FFF76AFD0C9A0D9B8B
:1014400000210491013103910295414601910096DA
:101450002000FFF7C9FE98E70B4B084A0848A42173
:1014600000F056FF0FB0F0BCBB46B246A946A046FE
:10147000F0BDC04684B30020D0220110945E01105C
:101480002C210110E8220110F422011010B50C4BA0
:101490005B68002B04D00B480A21FFF7BBFC10BD92
:1014A000074C094A20682300102100F0B8FB0320F4
:1014B00000F008FA03212000FFF73AFEEBE7C046F0
:1014C000C405002074C50020BD0E001010B5064BE9
:1014D0005B68002B01D0044810BD044B044A05484A
:1014E0005E2100F015FFC046C40500203023011026
:1014F000F85D01102C210110F0B5DE4657464E462E
:101500004546E0B58DB0060090461F00169B9A46F2
:10151000179B994618AB1B780793272302AA94467A
:10152000634400221A7021E001003000FFF7E8FD5B
:1015300000783CE00698002B5CD0079B002B59D02C
:101540004946D04704000D0003000B4359D0002941
:1015500040DB08A8FFF724FE089A099B0094019538
:1015600008A8FFF7D5FC089B9846099F7268EFF31F
:10157000108B72B6136859424B41D9B20691002BB9
:10158000F8D1BFF35F8F273302AA944663440493D4
:101590000023039302934B46019353460093424624
:1015A0003B003000FFF720FE0400051EBCD173682D
:1015B000BFF35F8F002119608BF31088002D17D0C7
:1015C000272302AA944663441B78002BB2D1000261
:1015D0002043B0E700236242AB41009201934246B0
:1015E0003B0008A8FFF794FC089B9846099FBDE7BD
:1015F000012040420DB0F0BCBB46B246A946A04611
:10160000F0BD0698F6E7F0B5C64600B584B0050013
:10161000884616001F000AAB1C78FFF757FF02949C
:10162000019700962A004346FFF766FF04B080BC8E
:10163000B846F0BDF0B5C64600B505000C1E42D058
:101640004268EFF3108772B61368002BFCD0BFF32B
:101650005F8FE6B22B68984631001800FFF78AFCCE
:1016600000282AD02B69A34213D0240AE4B2310007
:101670002800FFF745FD0378A34211D000206B68D6
:10168000BFF35F8F00221A6087F3108880BCB846D2
:10169000F0BD0E4B0E4A2C210E48FF3100F038FEF3
:1016A0003100404600F05AFB0028E8D10A4B084AB6
:1016B00099210848490000F02BFE2B69A342DED196
:1016C00000232B61DBE70020E0E7C0465423011034
:1016D000E05D01102C2101107823011010B50400E9
:1016E000FFF7F4FE2100FFF7A5FF10BD407D704716
:1016F00030B587B004000D00EFF30583002B20D137
:1017000006225242D31712196B418B4202D803D1E1
:10171000824201D90022002304A8FFF7E7FB02A8B8
:10172000FFF73EFD02980399049A059B121A8B411C
:10173000002B0BDC08D02000290000F0DBF807B0FC
:1017400030BD144800F07CFE002AF4D0124A049800
:10175000059900230093FFF756FF002813DAEAE704
:101760000E4B1A68EFF3108172B61368002BFCD091
:10177000BFF35F8F094B1B68BFF35F8F00221A60B6
:1017800081F3108820BF04980599FFF767FB0028B4
:10179000E6D0D0E77C2301107111001074C5002041
:1017A00000B583B002000B006846FFF70AFD009801
:1017B0000199FFF79DFF03B000BD10B5FA2292001A
:1017C0000023002102F030FBFFF7EAFF10BD00000C
:1017D00030B583B005000C00EFF30583002B0FD16B
:1017E0000B4A00230093FFF70EFF00280BDD20BFFC
:1017F000FFF774FF28002100FFF730FB03B030BD76
:10180000FFF72CFBFAE728002100FFF727FBF5E79D
:101810007111001010B5002B02DB0260436010BD97
:10182000024B034A03483F2100F072FD682101107A
:10183000E45E01108421011070B5EFF305801038CB
:10184000EFF3108C72B6194B1B68002BFBD0BFF363
:101850005F8F01221300834015494B6315490B60CC
:10186000154909780C00C440224213D0104A546A2A
:10187000124A8500AA58944205D3114AAA580E4C20
:101880009943217007E00A4A031D9B00995899501B
:10189000002200E00022BFF35F8F044B002119609B
:1018A0008CF31088002A00D0904770BD280100D02A
:1018B000004005403C700540DFC5002078C5002091
:1018C0002408002010B50100024A034B1800FEF75F
:1018D000B7FE10BDCC230110D1C50020044B5B6ABC
:1018E000034A906A1900536A9942F9D17047C04679
:1018F00000400540084B5B6A01E0074B5B6A8B4286
:10190000FBD301E0044B5B6A8B4203D1024B9B6A21
:101910008342F7D37047C04600400540F0B583B01E
:1019200004000D00FFF7DAFF06000F0022002B0075
:1019300092197B41994202D804D1904202D90122E6
:101940005242D3176846FFF765FF00980199FFF7E9
:10195000D1FF03B0F0BD000070B504000E00EFF33E
:10196000108572B61B4B1B68002BFBD0BFF35F8F3B
:10197000002E1CD02000FEF783FF174B83420BD0B4
:1019800019002000FEF784FF01212000FEF768FF08
:101990000123A340114A1360114BA400E650BFF38A
:1019A0005F8F0C4B00221A6085F3108870BD0C4BC2
:1019B000A2000021D1500122A2400A490B78934392
:1019C0000B7005492000FFF795F800212000FEF775
:1019D00047FFE4E7280100D03918001038600540BF
:1019E00024080020DFC50020F0B5DE4600B584B035
:1019F0000400150001921E000293FFF76FFF03958C
:101A00008E4202D84ED185424CD9EFF3108B72B67C
:101A1000274B1B68002BFBD0BFF35F8F254A17783D
:101A20000125A540EBB23B431370234B5D63221DA0
:101A300092000199D150214AA100029888501B6A56
:101A40002B4212D11C4B1B6C2B4208D00020BFF341
:101A50005F8F174B00221A608BF3108823E0184B1E
:101A6000184A1948C52100F053FCFFF737FF8E4292
:101A700014D802D1039B834210D80E4B1B78BB4273
:101A80000ED00D4B1D625D631F2222400123934047
:101A90000E4A1360074B1F700120D8E70020D6E7DD
:101AA0000120D4E7012004B080BCBB46F0BDC04695
:101AB000280100D0DFC500200040054078C5002087
:101AC000F0230110C85E01101424011080E200E030
:101AD000EFF3108C72B60B4B1B68002BFBD0BFF3DF
:101AE0005F8F01238340084A136208490A789A43AA
:101AF0000A70BFF35F8F034B00221A608CF31088CB
:101B00007047C046280100D000400540DFC50020D6
:101B100010B5002908D0037B8B4205D300684B0029
:101B20005B18033BC01810BD024B034A03486821F1
:101B300000F0EEFBD02101103C5F0110EC21011000
:101B4000F8B506000C001500FFF7E2FF0700002CB7
:101B50000DD0002D11D0AC4215D029003000FFF778
:101B6000D7FF84703B78002B13D13D70F8BD0A4B32
:101B70000A4A0B486F2100F0CBFB0A4B074A084882
:101B8000702100F0C5FB084B044A0548712100F0A4
:101B9000BFFB43703D70E9E73C220110285F011054
:101BA000EC210110482201105422011070B50600EA
:101BB0000D001400002914D0002A14D04368806856
:101BC0009847002806D0220029003000FFF7B8FF10
:101BD000280007E02A0021003000FFF7B1FF2000B5
:101BE00000E0100070BD0800FCE770B505000023A0
:101BF000437301338373037BC373012406E0210025
:101C00002800FFF785FF0134E4B24470297BA1422C
:101C1000F5D82800FFF77CFF0023437070BD10B596
:101C2000017342608360FFF7E0FF10BDF0B5C64668
:101C300000B505000C1E03D1200080BCB846F0BDE5
:101C4000FFF766FF4678002EF6D031002800FFF738
:101C50005FFF477800239846437021002800FFF774
:101C600057FF43464370320021002800FFF79EFFD4
:101C7000040039002800FFF7D9FF020021002800E6
:101C8000FFF794FF0400D7E7F0B5C64600B504009F
:101C90000D001700002927D0FFF73AFF4378002BEB
:101CA00028D18378002B2BD101782000FFF7BEFFCD
:101CB00006008046002F0AD0E17B002926D1A37BB5
:101CC000002B03D1E37B002B25D1A573E57343469D
:101CD000002B26D129002000FFF71AFF00234370B4
:101CE000300080BCB846F0BD114B124A1248382172
:101CF00000F00EFB114B0F4A0F483A2100F008FB91
:101D00000F4B0C4A0C483B2100F002FB2000FFF770
:101D1000FFFE4570D3E70B4B064A0748422100F00F
:101D2000F7FA31002000FFF7F3FE00238370D1E7BC
:101D30005C240110145F011064240110A42401101C
:101D4000CC2401109422011070B504000A00457BD8
:101D50002900FFF799FF6073280070BD70B5060079
:101D60000C1E40D0437B8B4207D0FFF7D1FE05000D
:101D70008178002906D1002036E00121FFF7E4FF39
:101D8000012031E03000FFF7C3FE0178A1420DD001
:101D90003000FFF7BDFE4178A1420AD00029F7D1FB
:101DA000124B134A13486B3100F0B2FA6B78037090
:101DB00001E06B7843700023AB706B70012221004F
:101DC0003000FFF761FF0200717B814205D03000D7
:101DD000FFF7ECFE7073012006E0074B044A05484C
:101DE000712100F095FA002070BDC046502001100E
:101DF000FC5E011064240110F024011070B5046B26
:101E0000E30701D4200070BD02003032C0239B01E3
:101E100013430A4A1A60456A836AAD01ED18AD02A0
:101E2000062000F0BDF9064901F066FC010028001B
:101E300001F062FC0021FFF771FDE3E70103000000
:101E40004E0E000070B504000E001500FFF7D6FF1F
:101E500022002C32E36A5E40354080235B0113434D
:101E60001D60206370BD000070B505000C000620E9
:101E700000F096F9C000210001F03EFCC60908D030
:101E80000E4B9E4216D87F230340013334005E0878
:101E900000E001246C62AE62002200212800FFF7FE
:101EA000D1FF062000F07CF98000A101891901F022
:101EB00023FC70BD0026024CECE7C046FEFF00008C
:101EC000FFFF000010B505394901013AD200114366
:101ED000002B09D002220A43012B07D00021114315
:101EE0006E22FFF7AFFF10BD0022F4E70421F6E7F2
:101EF000002909D00A22064B9C46604443425841BF
:101F0000044B4000C252704780225200F3E7C046A3
:101F10000080FCBFACC5002070B505000C00062099
:101F200000F03EF9061E27D0164B9D4226D0802297
:101F3000D203154B1A60154B1A60154B9B681100A4
:101F40009943FAD100212800FFF7D2FF2100280091
:101F5000FFF78AFF06000023012208212800FFF76F
:101F6000B1FF2A002C3280239B01134310221A60F8
:101F7000084B2B630323AB64300070BD8022120436
:101F8000D7E7C0460080034000E0004000F000407A
:101F900000C0004001030000F8B5DE4657464E463B
:101FA0004546E0B506000F0015000A9A934250D34B
:101FB0001A0E92461B0298460A9A00234046514642
:101FC00001F0D8FB81467400A419A4002F4B9C4655
:101FD00064446368834200D26060331FDBB29B4677
:101FE000012B3CD9C0239B012343802212011A609C
:101FF000274BB200D158002907D0586901F07CFB6B
:10200000013043001B18033BFDD26D0123685D4086
:10201000E0222A4080235B0123431A605A46012AAA
:1020200028D980239B012343802212011A604B464A
:1020300063604A4600234046514601F09BFB144B27
:10204000B60098510120F0BCBB46B246A946A04656
:10205000F8BD104B104A1148332100F059F9012FF7
:10206000C0D1C0239B01234303221A60A368DB076E
:10207000FCD5CAE72168794003220A401A60A368A8
:102080000125BD401D42FAD0CBE7C046008000408C
:10209000540A002010250110485F0110242501106A
:1020A00030B583B00C2000F011F9FEF7A9FA002832
:1020B0000DD0002304E02E4A99002E4888500133A9
:1020C000092BF8D92A4B2C4A5A6203B030BD2B4B4E
:1020D00000229A6700F002F9294B01221A60274B6F
:1020E0005B6C012BFBD1274B03221A60234B9B6BAC
:1020F000012BFBD1013300930433234A01212348F0
:1021000000F054F805230093214A0121214800F0F2
:102110004DF8214B0093002202210420FFF73CFFE1
:102120001E4D00952B00002201210520FFF734FFF2
:10213000104C00942300002200210720FFF72CFF01
:1021400000942300002200210820FFF725FF0A4BFE
:1021500000932300002200210920FFF71DFF0095B6
:102160002B00002200210620FFF716FFADE7C04636
:10217000540A0020006CDC021BB700000080004005
:102180003CB0004030B00040002F68590080024051
:10219000008C864700C00240001BB70040597307FF
:1021A000014B8000C0587047540A0020F0B5C64665
:1021B00000B504000E0017001D00374801F09CFA1E
:1021C0008046364BFA18364B9A4239D8010038000F
:1021D00001F092FA0200103A98235B009A4235D837
:1021E0006B1E062B38D8069B013B062B34D83F09C3
:1021F000474537D32D04069B1B031D432368002B43
:1022000036DB284B9C4244D080235B01264A136076
:10221000264A1360264A926819009143FAD1266033
:10222000A060221DC0239B01134321221A60226853
:10223000002AFCDAE56008221A6080BCB846F0BDCE
:102240001C4B1D4A1D48112100F062F81C4B1A4A14
:102250001A48192100F05CF81A4B174A17481C213C
:1022600000F056F8184B144A1448232100F050F897
:1022700022683F231340B342C3D1A3681B051B0D43
:102280008342BED1E368EE22D2021340AB42B8D102
:10229000D3E780239B01B9E7001BB70080E84BD34D
:1022A00080F8A93200C0024000E0004000F0004089
:1022B00000C000406C250110585F0110CC250110B2
:1022C000102601102C2601107826011080239B0077
:1022D0000343014AD362704700800540064BAA229F
:1022E00012011A602F22DA60044B054A1A60024B71
:1022F0005B68002BFBDA7047004002400060024040
:1023000000B0FA0000BEFDE710B5FFF7FBFF0000CC
:1023100030B583B00D001900002A0BD0074B084CD4
:10232000019200932B000200200001F07FFF0120AA
:10233000FFF7E8FF034B1A00F1E7C04694260110AF
:10234000A4260110DC54011070B52B4B2B4A1A60E7
:102350002B4B2C4A1A602C4B9A682A4B9343FAD188
:102360002A4C01E008CC9847294B9C42FAD3FFF74E
:1023700097FE234B274A1A60234B9B68DB43DB0104
:10238000FAD1254B40229A675A671A67DA66234CBE
:1023900009E0234B234A24488721FFF7B9FF200097
:1023A000FEF740FD0834214B9C4209D22368002BE4
:1023B000F5D0012BEDD12000FEF741FD0834F2E706
:1023C0001B4DA9681B4CC022200001F09FFDAC6092
:1023D000EFF30583002B00D000BEFEF793F9FEF764
:1023E000D9FCFFF753F8144C01E008CC9847134B85
:1023F0009C42FAD370BDC04600E00040BFCDFBFE5A
:1024000000F00040FE7F3C0000C00040900600202D
:10241000A0060020FFFFFF0100F001408806002019
:10242000D4260110645F0110F426011090060020EC
:1024300000ED00E000000020A0060020A80600201B
:102440000FB400B583B0084801F0C0FE049B002B18
:1024500007D005A90191180001F0C8FE034801F05A
:10246000B5FE0120FFF74EFF3C2701107857011001
:1024700010B50148FFF7E4FF4C270110704710B575
:10248000002802D00B684968984710BD0100002061
:1024900007E083001B185B00501C08601078C01810
:1024A00030380A681378303BDBB2092BF1D970471A
:1024B000F0B5DE4657464E464546E0B583B09346F6
:1024C0001F000C9B9A460D9C0E9B99460F9B9B07E9
:1024D00003D0B8460F00060022E00192A3468846CA
:1024E0004E46B9460700B44207D2551C4B464146FA
:1024F0002020B84701342A00F5E73D004F465C46EE
:10250000019B9B46B1464646B84637002E0007E081
:10251000013C551C5346185D43463900B0472A001C
:10252000002CF5D135003E0047460F9B9B0707D492
:10253000100003B0F0BCBB46B246A946A046F0BDB1
:10254000B0464E46B9462F005D46531BB342EFD20C
:10255000541C4B4641462020B8472200F5E7F0B511
:10256000CE46474680B585B0944698460C9D0D9C56
:102570000EAB1B789946109A119B129EB7071CD47C
:10258000002B0CD0F7070AD54F46002F02D10C378D
:10259000374204D0013B02E030272F5501349442EA
:1025A00001D21F2CF8D9F70707D59C4205D21F2C62
:1025B00003D830272F550134F5E7F70612D57705F4
:1025C00005D4002C03D0944221D09C421FD00F9AF6
:1025D000102A32D00F9A022A37D01F2C0AD8302264
:1025E0002A5501341F2C05D84A46002A33D02D2203
:1025F0002A5501340396029301940095434662469E
:10260000FFF756FF05B0C0BCB946B046F0BD621E2C
:10261000012C10D00F9F102F0BD014000F9A102AEE
:10262000D8D1B206D6D51F2CD4D858222A55013479
:10263000D3E7023CCBE71400C9E7B206EED41F2C67
:10264000ECD878222A550134C7E71F2CD2D8603243
:102650002A550134C1E7720703D52B222A550134CC
:10266000C8E73207C6D520222A550134C2E7F0B5A3
:10267000DE4657464E464546E0B593B081468A460B
:10268000089209931CAB10CB1B789B461E9D219B87
:102690009846002C03D1102342469A43904680234B
:1026A000DB0046461E4042461A4212D0002C22D081
:1026B00000260EE03033D9B2771C0AAB99552900B9
:1026C000200001F019F8AC4216D31F2F14D83E0099
:1026D00004002900200001F00FF8CBB2092BE9D942
:1026E0004246920605D54121C918C9B20A39C9B274
:1026F000E2E76121F8E7270043460693209B059314
:102700001F9B049303955B46029301970AAB0093CA
:10271000099B089A51464846FFF721FF13B0F0BCC9
:10272000BB46B246A946A046F0BDF0B5DE465746C8
:102730004E464546E0B597B00A900B910C929A46EA
:10274000209B9946219F22AA13789B46249B09939C
:10275000259C289B98464A463A4302D1103293431F
:1027600098468022D20045461540434613420AD07F
:102770004A463A4341D000252E0053460D934D461C
:10278000099B9A461BE02E0053460D934D46099B2C
:102790009A4614E03033DAB2731C99460EAB9A5560
:1027A000524623002800390000F0E4FFBC4226D83E
:1027B00019D04B461F2B1CD84E4605000F00524621
:1027C00023002800390000F0D5FFD3B2092BE1D94E
:1027D0004246920605D54122D218D2B20A3AD2B266
:1027E000DAE76122F8E7AA45E3D94E460D9B9A46FF
:1027F00008E04E460D9B9A4604E0002602E04E4655
:102800000D9B9A4643460693279B0593269B04936C
:10281000099B03935B46029301960EAB00935346CC
:102820000C9A0B990A98FFF79AFE17B0F0BCBB46BA
:10283000B246A946A046F0BDF0B5DE4657464E4624
:102840004546E0B591B0804689460C929A461A9C5E
:102850001B9D22002B002000290001F006FA002811
:1028600000D0ECE001225242D44B2000290001F0BC
:10287000F7F9002800D0E2E001225242D04B2000BC
:10288000290001F0D7F9002800D0D8E00022002369
:102890002000290001F0CEF9002800D0E4E00694E1
:1028A00007958023DB001E9A1A400D921E9A1A4249
:1028B00001D106231C930698079902000B00089289
:1028C000099303000A00024300D1D9E0080D400536
:1028D000400DBC4EB44660440A03120B1E00BA4BB6
:1028E00013431F0001F0D4F9B84AB94B01F063F962
:1028F000B84AB94B01F040F9089009910022B74B52
:102900003000390001F033F9B54AB64B01F053F904
:1029100002000B000898099901F02EF901F0D0F996
:10292000834601F0B5F906000F00AF4AAF4B01F046
:1029300042F90022AE4B01F01FF901F0C1F90890F5
:10294000AC4AAD4B3000390001F035F906000F00FC
:10295000089801F09DF9A94AA94B01F02CF9020051
:102960000B003000390001F002F906000F000200F0
:102970000B0001F020F90A900B91089BA14A9446A4
:10298000634400210022089109921B05099300234A
:10299000089332003B003000390001F0EDF80E9052
:1029A0000F9132003B0000208021C90501F0DFF8C3
:1029B00006000F000022944B0A980B9901F0E1F8F1
:1029C0000022924B01F0D8F802000B000A980B99F4
:1029D00001F0D7F800228E4B01F0CEF802000B0078
:1029E0000A980B9901F0CDF802000B003000390075
:1029F00001F0C2F802000B000E980F9901F0C1F827
:102A00000022714B01F0B8F8089A099B01F0D3F845
:102A100006000F0008960997069A079B01F020F917
:102A200000282FD001235B429C46E3440022774BD1
:102A30003000390001F0A5F80890099122E01E9BB2
:102A400004931D9B03931C9B029300940195534692
:102A50000C9A4946404600F0FFF811B0F0BCBB4666
:102A6000B246A946A046F0BD002100220691079279
:102A7000069480231B069C46AC446346079310E7EC
:102A800000239B465B466333C62B20D804261E9B3F
:102A90001B0528D5089A099B190011430FD05D4AE0
:102AA0005D4B0698079901F0D3F800287AD00022F0
:102AB0005A4B0698079901F0BDF8002872D01C9B6C
:102AC0005B4506DD5A469B1A013B1C9303E0052635
:102AD000DDE700231C938023DB001E9A1A431E921D
:102AE000002600239B461D9B9E4265D29F1B02230E
:102AF0001E9A1A400A921E9A134202D0002E00D04B
:102B000000275B46002B07D0089A099B0698079977
:102B100001F037F8069007910022002320002900D9
:102B200001F088F8002800D07CE03D4B1E9A13404D
:102B3000049303971C9B0293069B079C00930194AC
:102B400053460C9A4946404600F086F8002E00D1C4
:102B500083E71E9B9B0671D54525441C5346020006
:102B600049462800C0475A46D317D2185A40052371
:102B70000593013E0496002303930A3302935B46B8
:102B8000DB0F019300925346220049464046FFF76F
:102B90006EFD0A9B002B00D15FE7020047460C9EAA
:102BA0001D9D53E01C9B002B9DD00D9B002B9AD0AC
:102BB0001C9B013B1C9396E7002798E7FFFFEF7FE4
:102BC000FFFFEFFF01FCFFFF0000F03FFB799F508C
:102BD0001344D33FB3C8608B288AC63F0000F83F38
:102BE00061436F63A787D23F71A379094F930A406E
:102BF0000000E03F1655B5BBB16B0240EF39FAFE5D
:102C0000422EE63FFF03000000002C40000024405D
:102C1000000018402D431CEBE2361A3F80842E4101
:102C2000FFF7FFFF069C079D220029008020000679
:102C3000844661440B000692079376E765258CE78E
:102C4000541C534649462020B8472200931BAB42F0
:102C5000F6D3100001E7C046F0B5DE4657464E46B3
:102C60004546E0B595B00690079193469946209F5A
:102C70001E9A1F9B1000190000F0F7FF002831D1A9
:102C800001225242BF4B1E981F9900F0D3FF00282B
:102C900037D101225242BC4B1E981F9900F0E0FF31
:102CA00000283DD10022B94B1E981F9900F0D8FF93
:102CB000002850D10022B64B1E981F9900F0BAFF91
:102CC000002848D1002200231E981F9900F0B2FF6F
:102CD000002850D100239846229B5B0500D4B6E023
:102CE000002458E0229B0393219B0293032301932A
:102CF000A84B00934B465A4607990698FFF7D8FB16
:102D00000EE1229B0393219B029304230193A24B88
:102D100000934B465A4607990698FFF7C9FBFFE018
:102D20000423229A1A4022990B4210D09B4B002A6E
:102D30000FD00422229903912199029101920093CC
:102D40004B465A4607990698FFF7B2FBE8E0944BCA
:102D5000EDE70322EEE7229B0493219B0393029766
:102D60001E9B1F9C009301944B465A460799069858
:102D7000FFF762FDD4E01E9A1F9B0020002100F0A7
:102D8000F6FE1E901F9101239846A5E70CAB30225A
:102D90001A55013F01341F2C01D8092FF6D81E986F
:102DA0001F9900F08DFF050000F072FF02000B007C
:102DB0001E981F9900F0DBFE7A4BFA009B181A68E8
:102DC0005B680A920B9300F0F6FE0890099100F000
:102DD0009BFF060000F058FF02000B0008980999BD
:102DE00000F0C5FE0890099100226F4B00F038FFFB
:102DF00000282ED00136300000F046FF02000B0004
:102E00000A980B9900F01CFF002801D0013500261C
:102E1000002F2CD1280000F03BFF02000B001E9871
:102E20001F9900F0A4FE06000F0000225E4B00F088
:102E300001FF002846D100225B4B3000390000F032
:102E40000FFF00283ED1EB073CD501353AE00627BD
:102E500046E70022544B0898099900F0EBFE002841
:102E6000D6D1002E01D0F307D2D50136D0E7AA463D
:102E70001F2C11D8013F0A21300000F03DFC651CD9
:102E800030310CAB19550A21300000F035FC092E09
:102E90000ED906002C00EBE755461F2C0CD87B1EE4
:102EA000002F09D00CAA302111551F000134F4E77E
:102EB0002B0055461C00F0E71F2C03D80CAB2E222C
:102EC0001A5501341F2C10D80A21280000F0ECFB01
:102ED000661C30310CAB19550A21280000F0E4FBC8
:102EE000051E01D03400EDE734000323229A13407D
:102EF000012B1CD01F2C06D84346002B32D00CAB24
:102F00002D221A550134229B0393219B0293019495
:102F10000CAB00934B465A4607990698FFF7C8FA40
:102F200015B0F0BCBB46B246A946A046F0BD219BF9
:102F3000002B13D04346002B02D10C3313420FD089
:102F4000219B013B2193190003E00CAB30221A5561
:102F500001348C42CED21F2CF7D9CBE72199F8E768
:102F60002199F6E7229B5B0704D50CAB2B221A555F
:102F70000134C8E7229B1B07C5D50CAB20221A558C
:102F80000134C0E7FFFFEFFFFFFFEF7F65CDCD41CD
:102F900065CDCDC1682701106C2701105C27011099
:102FA00064270110106101100000E03FF0B5DE461B
:102FB00057464E464546E0B593B08246884693460E
:102FC0001193002900D10DE300255646119B187876
:102FD000002800D109E3252809D06C1C5B462A0093
:102FE0004146B047119B013311932500EEE70133B1
:102FF0001193002720E001231F4301321192012485
:1030000018E002231F4301321192012412E004232D
:103010001F430132119201240CE008231F430132A7
:103020001192012406E010231F4301321192012462
:1030300000E00024002C09D0119A1378203BD9B26B
:103040001029F6D88B00C849CB589F46119B1A7897
:103050001300303BDBB2092B10D92A2A13D00B9472
:10306000119B1A782E2A1ED0119A1378683BD9B278
:10307000122959D88B00BD49CB589F4611A8FFF79C
:1030800005FA0B90ECE71C9B1A1D1C921B68002B89
:1030900004DB0B93119B01331193E1E702221743E9
:1030A0005B420B93F6E78022D20017435A1C119221
:1030B0005A781300303BDBB2092B0BD92A2AD3D123
:1030C0001C9B1A1D1C921C68002C08DB119B0133F1
:1030D0001193C9E711A8FFF7D9F90400C4E7002448
:1030E000F4E780235B003B43511C119151786C291C
:1030F00001D01F0018E0C0239B001F430232119231
:1031000012E080233B43511C11915178682901D072
:103110001F0009E0C0231F430232119204E0802304
:103120005B001F4301321192119B1878672818D851
:10313000252800D24CE20300253BDAB2422A00D90E
:1031400046E293008A4AD3589F4680239B001F4340
:1031500001321192E8E780235B001F430132119294
:10316000E2E7782800D933E2692800D230E2020091
:10317000693AD2B2012393407E4A134211D11A0612
:1031800000D500E25B0500D422E21C9B1A1D1C92B4
:103190001B689A46002C00D0B2E1012252425346ED
:1031A0008EE16F280ED006D858283DD0622804D171
:1031B00002239C4608E0782839D010239F43063B21
:1031C0009C4601E008239C46582833D0692803D048
:1031D000642801D00C2297437A0501D50122974338
:1031E00069282AD0642828D0BA0500D59FE0FA05BE
:1031F00000D5C1E07A0600D4D3E01C9A111D1C91C1
:103200001168FF220A4005970B9B049303946346C1
:1032100002930023019300925B462A00414630004E
:10322000FFF725FA050027E010239C46CCE7102382
:103230009C46C9E720221743C8E7BA0520D4FA05FF
:1032400050D47A0666D51C9A111D1C911168FF2274
:103250000A40D0171118414005970B9B0493039423
:1032600063460293D20F019200915B462A004146C9
:103270003000FFF7FCF90500119B01331193A5E61F
:103280001C9A073207218A43110008311C911168EA
:1032900053689946DB170C930D930C9A0D9B100005
:1032A00048400E904A4653400F930E980F990C9A3F
:1032B0000D9B801A99410E900F9108970B9B0793D5
:1032C000069463460493002305934B46DA0F02925B
:1032D000009001915B462A0041463000FFF725FA35
:1032E0000500C9E71C9A111D1C911268D01711180E
:1032F000414005970B9B0493039463460293D20FBE
:10330000019200915B462A0041463000FFF7AFF979
:103310000500B1E73A0605D51C9A111D1C91002342
:10332000D25E96E71C9A111D1C91126891E71C9AB7
:10333000073207218A43110008311C9108970B9B23
:1033400007930694634604930023059302935368FE
:103350001268009201935B462A0041463000FFF755
:10336000E4F9050088E7C046745F0110B85F0110FA
:1033700004600110419000001C9A111D1C910597DA
:103380000B9B0493039463460293002301931368F9
:1033900000935B462A0041463000FFF768F90500BC
:1033A0006AE73A0606D51C9A111D1C911268120490
:1033B000120C28E71C9A111D1C91126823E746285D
:1033C00019D01C9B0733072293431A0008321C9222
:1033D00004970B9A039202941A685B680092019317
:1033E0005B462A0041463000FFF736FC0500119B82
:1033F00001331193EAE520231F43E2E7672801D058
:10340000472802D180231B011F43452801D04728AC
:1034100001D120231F431C9B0733072293431A002B
:1034200008321C9204970B9A039202941A685B6804
:10343000009201935B462A0041463000FFF7FCF9F9
:103440000500119B01331193C0E502231A003A4095
:1034500091463B421DD001241C9B1A1D1C926F1CDF
:1034600018785B462A004146B0474B46002B14D1E2
:10347000119B013311933D00A8E5571C5B46414663
:103480002020B04723003A005C1C9D42F5D815006F
:10349000E2E701232A000B9DF6E73A00B1460B9EB6
:1034A00006E0571C5B4641462020C8472C003A00E6
:1034B000651CA642F5D817004E46D9E701330A002D
:1034C0001978002902D0511E002AF7D152469B1AC2
:1034D0008022D200390011408946174202D0A3420F
:1034E00000D9230002221100394010913A4209D03C
:1034F0002A00250057469A4633004E46994621E059
:1035000022004CE62A004546A04606E0541C5B46D5
:1035100029002020B0473B0022005F1C0B999942F4
:10352000F4D84446A8463B00250057469A46330047
:103530004E46994606E01D000137541C5B46414645
:10354000C84722003878002804D0002EF4D06B1E23
:10355000002DF0D1150053464E46109A002A03D193
:10356000119B0133119331E50B9F2A0006E0551C96
:103570005B4641462020B04723002A005C1C9F4246
:10358000F5D81500ECE721233B431C9A111D1C9133
:1035900012680593082304930394083302930023CD
:1035A000019300925B462A0041463000FFF75FF826
:1035B0000500119B0133119308E56C1C5B462A0042
:1035C00041462520B047119B013311932500FDE4AE
:1035D0006C1C5B462A004146B047119B0133119396
:1035E0002500F3E40A4B9A46EEE4B2465D450DD35E
:1035F0005B465A1E5B4641460020D047280013B068
:10360000F0BCBB46B246A946A046F0BD2A00F1E791
:103610007D24001000B585B002900391012104487B
:10362000009313004A4202A9FFF7C0FC05B000BD99
:103630007F24001001480421014B1847F0050020A9
:1036400071360010014B9B6818470000F005002000
:1036500010B5010018231B8814221088984710BD4C
:1036600010B5010018231B8816221088984710BD3A
:10367000F0B5C64600B507000E00002501239846A8
:1036800000E00135B5420AD2AC003C192068FFF7D2
:10369000DFFF20600028F4D100239846F1E7404680
:1036A00080BCB846F0BD0000124A936F9B0815D24B
:1036B0009066D166002905D0FFE7FFE7FFE7516F6D
:1036C000106F704704B580210906C21751400028C9
:1036D00000D0C8430EF078FA002104BDF0B5146E96
:1036E000556E576F166FFFF7E3FF14665566576701
:1036F0001667F0BD000000D0114A936F9B0813D2EB
:1037000010665166002905D0FFE7FFE7FFE7516F1C
:10371000106F704704B5002801D00020C0430EF0A0
:1037200053FA002104BDC046F0B5146E556E576FB4
:10373000166FFFF7E5FF1466556657671667F0BD0D
:10374000000000D094464A4A926F9208624601D225
:1037500028E0C046F0B5464E346E756E776F366F12
:1037600000F020F89446424A14665566576716677B
:103770006246F0BD94463E4A926F9208624601D27C
:1037800054E0C046F0B53A4E346E756E776F366FC2
:1037900000F04CF89446364A14665566576716672B
:1037A0006246F0BD002B24DB11D000293EDA00B5C3
:1037B000C943404200D1013100F038F8C9434042CA
:1037C00000D10131DB43524200D1013300BD002A58
:1037D000EBD1002801D1002905D00020C90FC9076D
:1037E00001D1C043410800B50EF0DEF900220023EC
:1037F00000BD00B500290ADBDB43524200D1013392
:1038000000F014F8C943404200D1013100BDC94362
:10381000404200D10131DB43524200D1013300F07C
:1038200005F8DB43524200D1013300BD002923D10A
:10383000002B18D1002A0CD0BC460D4F38667A6692
:1038400000210023FFE7FFE7FFE77A6F386F674645
:103850007047002801D00748010000B50EF0A4F918
:103860000022002300BD02000B0000200021704751
:10387000000000D0FFFFFFFF002B00D0BFE0130CC3
:1038800028D1002AE7D080B4114F39667A66FFE765
:10389000FFE730B4040C7B6F396F1B0423433B6696
:1038A0007A66FFE7FFE7FFE7C04684B27B6F3D6FB4
:1038B0001B0423433B667A66FFE7FFE7C04600230D
:1038C0002C042D0C7A6F386F00196941B0BC704719
:1038D000000000D0F0B594460025140E01D112026C
:1038E0000835140F01D112010435940F01D1920053
:1038F0000235D40F01D152000135D40B0134254FCC
:103900007C66254C3C660E0C93B2FFE7FFE7FFE7B1
:103910003C6F6643360C7703BE467343DF0B5B0494
:10392000C01AB941130C7343DB18C91ACE08664399
:10393000360CB64493B273431F0F1B01C01AB94132
:10394000130C73431F0B1B05C01AB941860D8F0260
:103950003E436643360C092D24DB520A7243801A1B
:103960007703460A6643360C16235B1BDE40DF40B6
:10397000BF1964466643821B704604350633010056
:10398000D940A840C01900D30131A24206D2002379
:10399000F0BD0000000000D0FFFFFFFF121B013050
:1039A000F3D3F1E709277F1BFE406446A2B27243BE
:1039B000801A00D20139220C7243130C1204821AAD
:1039C00099410B007046043513370100F940A840B7
:1039D000801900D30131002B02D1A2420AD2F0BDDE
:1039E000013000D30131121BFAD2013BF8D1A242BF
:1039F00000D2F0BD013000D30131121BF7E7F0B562
:103A00001C0C00D080E00CB400251C0A04D11B0261
:103A1000160E3343120208351C0B04D11B01160F7E
:103A20003343120104359C0B04D19B00960F3343A2
:103A300092000235DC0B02D192185B4101351C006B
:103A4000971864410134464F7C66464C3C660E0C28
:103A5000FFE7FFE7FFE7C0463C6F6643360C77039E
:103A6000BE4697B27743C01B00D20139C01B00D2BB
:103A700001399FB27743C91BC91B170C77437E04DA
:103A8000FF0B801BB941CE086643360C0C2D33DB8F
:103A9000B644120B1F053A431B0B97B27743C01B6A
:103AA00000D201399FB27743C91B170C77433E04FC
:103AB0003F0C801BB941860D8F023E436643292788
:103AC0007F1BFE400C3D7746AF40BF1930BCA2B211
:103AD000ABB272437343801A9941220C7243130CA8
:103AE0001204801A994102000B000137001BA94102
:103AF000F9D2781E0021F0BD0C277F1BFE407746CF
:103B00007F0BAF40FF19E0E700245D1C07D0144F86
:103B10007D663966FFE7FFE7FFE7FFE73C6F95B299
:103B20009EB265436643401BB141150C1E0C6543B4
:103B3000664336042F0C3E432D04401BB14199428D
:103B400004D202000B0020000021F0BD01D1904200
:103B5000F7D3801A994101349942F2D3F6E7000075
:103B6000000000D0FFFFFFFF48404140484018B42C
:103B7000134B5B68019308BD18B4114B1B6801938C
:103B800008BD94460F4A926F920805D2624618B457
:103B90000B4BDB68019308BD0A4AF0B5146E556EF5
:103BA000576F166F6246FFF7F2FF064A14665566B6
:103BB00057671667F0BD18B4014B9B68019308BDA9
:103BC0006CC30020000000D0FFB550404240504080
:103BD00059404B40594000E0FFB5154F4C00640D73
:103BE00003D0BC4204D10C0314D80020090D0905F0
:103BF0005C00640D03D0BC4204D11C030AD800222F
:103C00001B0D1B0501264B4009D44B4003D58B42AD
:103C100000D18242FFBD9942FCD19042FFBD0B43CF
:103C2000DB1803431343F5D0C9434918FFBD000017
:103C3000FF07000000B5FFF7CFFF804100BDC04681
:103C400000B5FFF7C9FF01D9002000BD012000BD6C
:103C500000B5FFF7B9FF01D9002000BD012000BD6C
:103C600000B5FFF7B1FF804100BD012040054A00CB
:103C7000121804D85A00121801D8002070470120E9
:103C800070470020704700000021002805D17047D0
:103C9000C1174840401AFAD0C90713B5064B1B6834
:103CA00098470CBC441CA2401005120B0349091B89
:103CB00009051943114310BD70C400201F04000002
:103CC00010B54C00620D8023D218DB00D21A5B05C0
:103CD0007E2A10DD9E3A13DACC17090349081943EE
:103CE0005242D140640001341532202A05DAD04016
:103CF0000843604310BD002010BD0846604310BD5E
:103D0000C80FC018013810BD18B4024B5B6A01938C
:103D100008BD00006CC3002010B50148FEF790FB01
:103D20007427011070B513231C78012C12D0012CBC
:103D300012DC214B214A93642148FFF789FC214B77
:103D4000186070BD20491D4A9800815001331F2B17
:103D5000F8D9ECE70023FAE71C48FFF781FC0500DF
:103D60001B48FFF77DFC023803789B007F2B09DDA1
:103D700012488022290000F0C9F8022C08D0022C39
:103D8000DADCD6E7134B144A14483221FEF7C0FAA6
:103D9000134B1A88B5231B029A4209D1114B1A887A
:103DA000114B9A4204D1114B1A88114B9A42E6D01A
:103DB0000020FEF745FBC046F53D00106CC3002017
:103DC0004C33000070C40020193D00105344000023
:103DD000534600008C27011060610110E02701109C
:103DE00054380000D8380000494600009C380000D4
:103DF0005946000007B56046002800D100BE018882
:103E00000A0A0230DF2AFAD1C9B2820804D3028832
:103E100040880004104300E00068024A50500390BC
:103E200007BD00006CC3002051434343C9188C46B2
:103E3000110C83B24B4310B4040C614392B280B2B4
:103E4000504362431C041B0C001910BC594113045D
:103E5000120CC018514161447047000010B5014870
:103E6000FEF7EEFADC54011070B513231E781848E3
:103E7000FFF7F6FB0500012E11D0012E09DDAB1E68
:103E80001B789B007F2B1DDD12488022290000F04B
:103E90003DF81148FFF7DCFB104B186070BD0D4872
:103EA0005422290000F032F8002300E001331F2BD8
:103EB000E3D8084A9C00A258002AF7D10849054ACD
:103EC000A150F3E7074B084A08484221FEF720FAC1
:103ED0005346000074C400204C33000070C400201E
:103EE0005D3E00103028011074610110642801103B
:103EF00001480421014B18470006002071360010CC
:103F0000014B1B681847000000060020014B5B684E
:103F1000184700000006002010B50300080011003B
:103F20001B68984710BD0000F8B507000D0016008B
:103F3000437D002B02D0002400200CE00368110018
:103F4000280098472DE03B7D10E03B681548022192
:103F50009847601C0134B44214DA002CF3DD2B19AD
:103F6000013B1B780D3B5A425341DBB22A5D0A2AC2
:103F7000F0D1002BEED1A042E7DA3B68211A2818D5
:103F80009847E2E7B04203DA3B68311A28189847AD
:103F9000002E06DDAD19013D2B780D3B5A425341F1
:103FA0003B75F8BDB861011070B505000368002BC2
:103FB00016D00C4B1C6805E0290004C92000FFF74F
:103FC000B3FF2469002C09D02368002BF9D0064BDD
:103FD0001B68002BF0D0A342F3D1EDE700232B6048
:103FE00070BDC0462C1900203019002070B50500A6
:103FF0000C000B68802B05D023685A1C2260E41843
:10400000257170BD0800FFF7CFFFF5E710B5002B55
:1040100002DB0260436010BD024B034A03483F21AC
:10402000FEF776F968210110BC61011084210110AE
:1040300010B582B00400FDF751FC02000B00684689
:10404000FFF7E4FF009A019B22606360200002B04A
:1040500010BD000070B582B0060014001D00FA22E9
:104060009200002306980021FFF7DEFE02000B00FD
:1040700012196B41002B09DB6846FFF7C7FF009A56
:10408000019B32607360300002B070BD0122524269
:10409000004BF1E7FFFFFF7F30B585B004000D0056
:1040A00002A8FFF7C5FF029A039B00952000FFF7C7
:1040B000D1FF200005B030BD00B583B0FA218900E2
:1040C0006846FFF7E9FF009A019B02480DF08CFD5E
:1040D00003B000BD8806002010B502480DF05CFD5D
:1040E00010BDC04688060020F0B5CE46474680B5D4
:1040F00083B006000D0090461C00FFF7DDFF8146EF
:104100006B1C05D0002C08D0194F1A4B1C6807E017
:1041100030000DF0FFFC0500F4E7174FF5E72469C8
:10412000002C17D02368002BF9D0144B1B68002BF0
:1041300001D0A342F3D12A0031002000B847434602
:10414000002BECD06B46D91D0A230B7001222000F6
:10415000B847E4E74B46002B07D16B1E9D41E8B200
:1041600003B0C0BCB946B046F0BDFFF7B5FFF4E7F9
:10417000193F00102C190020293F00103019002091
:10418000094A01E010331A001368002B08D083425B
:10419000F8D1002907D1036913600023036102E00D
:1041A000002900D0106070472C19002010B5064B74
:1041B0001C6801E098472469002C03D06368002B39
:1041C000F8D1F8E710BDC0462C19002070B50500E5
:1041D0000DF0A0FC04000023012201002800FFF7DD
:1041E00083FFFFF7E3FF200070BD000070B5A2B0B1
:1041F00004000E00FFF760FF0500002301930A484A
:104200003300220001A9FFF705FA040001A8FFF717
:10421000CBFEFFF7CBFF002D02D1200022B070BDF6
:10422000FFF75AFFF9E7C046ED3F00100FB400B5A5
:1042300083B004A901C90191FFF7D8FF03B008BCFE
:1042400004B0184710B500F0FFF8012010BD0000C1
:1042500010B582B00C00144BC3185A425341134A94
:104260005B009B5E8B4204D06B46DA1D147000210C
:1042700015E06B46DA1D0D23137000210029F3D1E0
:1042800083699B06FCD41378036001310132F5E7A2
:1042900083699B06FCD41378036001310132002945
:1042A000F6D002B010BDC0460080FCBFACC50020F7
:1042B00082B000226B46D91D06E08369DB06FCD480
:1042C00003680B7001320131002AF6D06B46D879B1
:1042D00002B0704770B506000D00002405E0315DA6
:1042E000034B1868FFF7B4FF0134AC42F7DB70BD35
:1042F000B0C50020F8B506000D00002705E07C1CC5
:10430000F719FFF7D5FF38702700AF4204DA0E4ADD
:1043100010688269D206F2D50C4A1268002A0CD0C5
:10432000094A12685021916310003430526B1839D9
:1043300011408022520102431160002F01D0380049
:10434000F8BD033FFBE7C046B0C500204C0A002083
:1043500010B5064B1B68002B06D0054A12680021D9
:104360009163044A1068984710BDC0464C0A00206B
:10437000B0C50020500A002070B505000E001C4B8F
:104380001A681C4BD31859424B4114331C000028A7
:104390001ED0194B1B68002B04D0174B1D60174B08
:1043A0001E6070BD16492000FCF772FA0121200042
:1043B000FCF756FA0E4B1B6850229A6319003431F1
:1043C0005B6B183A1A4080235B010B431A60E4E7E9
:1043D000094B1B68002BE0D00023936300212000D1
:1043E000FCF73EFA06492000FCF784FBD5E7C046FF
:1043F000B0C500200080FCBF4C0A0020500A0020FD
:104400005143001070B50D001C000D4B1860002AC0
:104410000BDA002C0EDA0A4B18682900FDF77CFD38
:1044200008480121FFF7ACFE70BD02211000FCF727
:1044300017F8EEE702212000FCF712F8EBE7C04680
:10444000B0C500201006002010B5064B1B78064BA7
:104450001B78E1210123002249020448FFF7D2FF23
:1044600010BDC04648DF041044DF04100040034084
:1044700010B5002905D0FA2292000023FFF77AF93F
:1044800003E0FA218900FFF737F910BD10B5002BC2
:1044900002DB0260436010BD024B034A03483F2128
:1044A000FDF736FF68210110E86101108421011039
:1044B00070B582B0060014001D00FA22920000239D
:1044C00006980021FFF7B0FC02000B0012196B41A7
:1044D000002B09DB6846FFF7D9FF009A019B326089
:1044E0007360300002B070BD01225242004BF1E710
:1044F000FFFFFF7F10B5064B8B4202D105F08AFD0E
:1045000010BD044B044A05481821FDF701FFC046C1
:1045100028060020282901100062011048290110F6
:1045200010B582B00400FDF7D9F902000B0068460F
:10453000FFF7ACFF009A019B22606360200002B08D
:1045400010BD30B585B004000D0002A8FFF7E8FFEC
:10455000029A039B00952000FFF7AAFF200005B0F8
:1045600030BD000030B583B00400134B994213D125
:1045700001230B7205F078FD0100431C12D10F4B93
:104580000F4A106851689860D96023685B690B49CD
:104590002000984703B030BD0A4B0B4A0B481D2141
:1045A000FDF7B6FE054D6846FFF7CBFF009A019B6D
:1045B000AA60EB60E9E7C04640060020280600201C
:1045C000C05E0110902901101862011048290110E5
:1045D00010B50400094B1B78002B08D008490123B3
:1045E0000B722368DB6920009847012010BD00F0A2
:1045F0000DFC024B01221A70F0E7C046D4C5002022
:104600004006002010B5040003689B6903499847E1
:1046100023681B6A02492000984710BD2806002025
:104620004006002000207047704700B583B0684600
:10463000FFF776FF00980199FFF71AFF03B000BD5E
:1046400002000B000449086849685040594008437B
:1046500043425841C0B27047C05E011010B5002BF4
:1046600002DB0260436010BD024B034A03483F2156
:10467000FDF74EFE682101102C620110842101100B
:1046800010B582B00400FDF729F902000B0068465E
:10469000FFF7E4FF009A019B22606360200002B0F4
:1046A00010BD083000E018000368002B03D08B42D7
:1046B000F9D1002002E001600B6001207047083052
:1046C00000E018000368002B05D08B42F9D10B687D
:1046D0000360012000E000207047043000E0180073
:1046E0000368002B03D08B42F9D1002002E0016067
:1046F0000B6001207047043000E018000368002BB5
:1047000005D08B42F9D10B680360012000E0002046
:1047100070470000F0B585B00500806800282AD0F9
:1047200002A8FFF7ADFF029E039F08350023019307
:1047300006E0134B134A14484221FDF7E9FD25001A
:104740002C68002C11D0A268E36830003900801A70
:1047500099410029F3DBA668E76830003900FFF7CC
:104760006FFF0028E5D10195E9E7019A002A04D0FE
:1047700010680368136005B0F0BD0198FBE7C04600
:10478000C029011044620110E4290110F0B50D4B5D
:104790001E685F68836802E09E68DF686346002BDE
:1047A0000DD01A6894469C68DD6831003A00091BF8
:1047B000AA41002AF0DCF1D10029EDD1EEE7066133
:1047C0004761F0BDC05E011070B506000D0002E04B
:1047D0004B68280098472800FFF79CFF011EF7D17F
:1047E0006C6800E02468002C09D0237A002BF9D0F3
:1047F000002323726368210028009847F2E728000D
:10480000FFF7C4FF2A696B6932607360300070BDC6
:1048100070B50F4C0F4D24184D41A900A00F08434F
:10482000A90F604069400C4A0C4BFFF7FDFA4A01A2
:10483000C30E1343CA0E58405140094A094BFFF7B3
:10484000F3FA4A00C30F1343CA0F5840514070BDDA
:10485000157C4A7FB979379EB9E5E41C6D4758BF8E
:10486000EB113113BB49D094F0B5C64600B584B006
:1048700002000B0013498C461BE0614601C9009001
:104880008C4600210191910E9F010F4396010098E3
:1048900001998019794102900391110C1D040D4377
:1048A00014040298039900196941801A9941020081
:1048B0000B0005498C45E0D91000190004B080BCFC
:1048C000B846F0BD001C0420FF1F0420F0B5CE4602
:1048D000474680B583B080460368446800930194DE
:1048E00003008068D96801E0FCF7F8FF009C019D97
:1048F00023002B4302D103000B43F5D0009C019D04
:10490000A60FAB003343A2002E002500AD185E4178
:104910006B0E9946F3019C464B46624613431F00BB
:10492000730EEA0113431E005B0F9C46FB006446B6
:104930002343F20092197B41009C019D6040694035
:10494000260A2F063E432D0A009C24062543454097
:1049500034004C40070C0E043E4307047D40744075
:104960004646356074604C01C50E2C434001C90EAB
:104970000843B460F0601000190003B0C0BCB94631
:10498000B046F0BD10B5002B02DB0260436010BDE5
:10499000024B034A03483F21FDF7BAFC682101108E
:1049A000746201108421011010B582B00400FCF77C
:1049B00095FF02000B006846FFF7E4FF009A019B99
:1049C00022606360200002B010BD000010B582B00C
:1049D00004000498059912184B41002B09DB684626
:1049E000FFF7D0FF009A019B22606360200002B0B5
:1049F00010BD01225242014BF1E7C046FFFFFF7F8D
:104A000070B584B0040016001D0002A8FFF7CCFFAB
:104A1000029A039B009601952000FFF7D7FF200024
:104A200004B070BDF0B5DE4657464E464546E0B58B
:104A300085B082464B4B9B69DB040FD54A4BDA6B42
:104A4000E0231340402B09D0EFF305839B46002859
:104A50000AD0002301930026002774E0434B444A08
:104A600044488121FDF754FC434B414A414886218B
:104A7000FDF74EFC414B18685968FCF739FEEFF31F
:104A8000108572B63E4B1B68002BFBD0BFF35F8FC7
:104A90003A4B1A685B68904516D0BFF35F8F384B6E
:104AA00000221A6085F310884B46002B48D1334B07
:104AB0001A6890465C685B46002BDBD02F4B186869
:104AC0005968FCF717FFDAE7A342E6D13000390056
:104AD00080197941234BDA690123134003431E00F7
:104AE0000F00264C0A22002302A8FFF789FF029A32
:104AF000039B226063605346013B019A93421CD1A1
:104B0000204A514620390ED413688B401268514612
:104B10008A4032433B4316001F001A4B1E605F6001
:104B200001239946B9E7202351465B1A1168D94001
:104B30005368504683400B43E8E701239946ACE7AE
:104B4000019B01330193019B534502D200239946F7
:104B5000ADE73000390005B0F0BCBB46B246A9460F
:104B6000A046F0BD00000640008000403C2A011035
:104B70008C620110042B0110343101101008002048
:104B8000300100D0A806002010B586B0394C20684E
:104B90006168FFF769FE20606160FFF739FE029AE5
:104BA000039B424002924B400393684600F006F993
:104BB00000980199FFF72CFE049A059B424004924D
:104BC0004B4005934020FFF72DFFFFF721FE029A8F
:104BD000039B424002924B400393FCF77FFEFFF79A
:104BE00017FE049A059B424004924B400593EFF355
:104BF000108472B6204B1B68002BFBD0BFF35F8F75
:104C00001E4B1B78002B26D10022032A09D8531CE7
:104C1000DB001B498C4663445B681F2B03D00132C9
:104C2000F3E701225242531C1ED0164B1A70FF2389
:104C300013400133DB00124A9446634405225A6054
:104C400002A8FFF743FE1048102202A9FFF75EF901
:104C50000A4B01221A70BFF35F8F074B00221A60C4
:104C600084F3108806B010BD084B094A0948E921B1
:104C7000FDF74EFBB0060020300100D0DBC5002060
:104C800000000340CFC50020B8060020442B0110CF
:104C9000AC620110042B011070B584B03A4B1B7844
:104CA000002B00D167E0394910226846FFF72EF942
:104CB000374B1C78E4B2FCF711FEFFF7A9FD009A10
:104CC000019B424000924B4001930120FFF7AAFE56
:104CD000FFF79EFD029A039B424002924B400393D2
:104CE0002C4B1A78531CDB002B4958582B4B9842FD
:104CF00044D00021FFF78CFD009A019B42400092B6
:104D00004B400193EFF3108672B6254B1B68002BC6
:104D1000FBD0BFF35F8F1E4B1B78DBB2A34210D0DA
:104D20000099019A194B1C685868614000914240F3
:104D300001920299039A9C68D868614002914240AE
:104D400003926846FFF7C2FD05000C000F481022D1
:104D50006946FFF7DBF80E4A13780133DBB21370B4
:104D6000BFF35F8F0E4B00221A6086F31088280075
:104D7000210004B070BDFFF707FF94E70132D200B5
:104D80000B000021D150B4E7DBC50020B80600209D
:104D9000D0C50020CFC5002000000340FFFFFF006A
:104DA000300100D010B5FFF777FF10BD10B50248F5
:104DB00000F00CF810BDC04664C3002010B50249D5
:104DC0000822FFF7A3F810BD64C3002030B589B0F6
:104DD000040004AD0D2200212800FFF791F80D22F8
:104DE00000216846FFF78CF84B232B700D22694693
:104DF00028000CF0C9FE002304E05A1D69468A5CB5
:104E0000E2540133072BF8DD09B030BD10B501F0D5
:104E100043FC00F0C1FB00F097FD00F033FE05F00D
:104E2000AFF901F0C1FC00F01AFA05F0E1F810BD8D
:104E3000030A0002184380B27047030000061A02FA
:104E4000FF2109040A4010431A0AFF2109020A40FF
:104E500010431B0E1843704700280AD0C07A002860
:104E600009D1431C054A9B009B58002B04D001200C
:104E700002E0002000E000207047C046E41400205B
:104E800010B5FFF78FFF80B2002301E00133DBB2E2
:104E9000032B10D8084A1901C91809015218927A2F
:104EA000022AF3D1044A1901C918090152181289BA
:104EB0008242EBD1E5E710BDEC140020F0B5D646F8
:104EC0004F464646C0B506008846002401E001343E
:104ED000E4B2032C25D8334A63001B199B009F586A
:104EE000002FF4D013006200121992009B181B7A55
:104EF000B342ECD130018019000110302A4BC018A8
:104F0000284A630099461B199B00924653445A68ED
:104F10004146B84723004B449B00002251465A505B
:104F2000D5E7002301E00133DBB2032B18D8B342ED
:104F3000F9D01D4A1901C91809015218927A022A9A
:104F4000F1D119491A01D21812018A18D07B320105
:104F5000921912018918CA7B9042E4D10422CA73C3
:104F6000114B3201921912019B18DB7B032B04D9E0
:104F7000E0BCBA46B146A846F0BD0C4C9B0018599F
:104F800005F0F4FB084B3201911909015918C97B4E
:104F9000890000200851921912019B180422DA732B
:104FA000E6E7C046B4140020EC140020A41400204E
:104FB000F0B5D6464F464646C0B584B08046564BFF
:104FC0000201424412019B18DB7A012B33D8534A69
:104FD0009B009B58002B31D0070147443F011037FD
:104FE0004D4BFF1838000CF095FDA022123081B215
:104FF0009200362000F0DCFF051E00D189E001ACF4
:105000000C2200212000FEF77BFF434B4246120199
:10501000424412019B181889FFF70AFF20800123E0
:10502000A370FF33A3800C222100280001F0E2F9D5
:10503000013F0C2638E03A48FDF702FA0021FFF75D
:105040003DFF354B42461201424412019B1800229B
:105050009A720024200004B0E0BCBA46B146A846CB
:10506000F0BD0134E4B201373B782E2B01D0002B88
:10507000F7D14B46FB1A9BB29A463319294A934201
:1050800016DC22003100280001F04EFA731C9BB29E
:1050900052464946280001F0F9F9A419A4B2661C49
:1050A000B6B23B78002B09D00137B9460024DBE7C4
:1050B000280000F03FFF06246442CBE700223100C5
:1050C000280001F031FA0234A3B28022520069466E
:1050D0000A804A80FC3A280001F0D8F90E4B42467B
:1050E00012014146511809015918C97B4244120165
:1050F0009B18DA7A9200094BD2180B4B8900C858DA
:105100003523290005F0AAFA0400280000F012FF58
:10511000A0E7012464429DE7EC140020E414002081
:10512000B02C0110FEFF0000A414002070B5040094
:1051300003011B181B0141481818032C20D83F4AB3
:105140002101091909015218927A022A34D01AD879
:10515000002A14D0012A00D06CE0FFF791FE374AF4
:1051600021010B191B01D31818810220987200200D
:10517000D87201251D7358732000FFF719FF70BD09
:105180002F48FDF75DF9032A54D12C4A23011B193E
:105190001B019B58002B07D0013B11002201121963
:1051A00012015350002BEAD1244B22011219120193
:1051B0009B1800229A72E2E720492201121912017B
:1051C00089180A7B013AD2B20A73002AD7D11B4947
:1051D00022011219120189184A7B0132D2B24A7394
:1051E000042A09D0154B2101091909015B181A730A
:1051F0002000FFF7DDFEC2E7FFF72EFE00280DD0EE
:105200000E4A21010B191B01D318D87A0130D8722C
:10521000012018731A0000235373E9E700212000CE
:10522000FFF74CFE054B2201121912019B180022B8
:105230009A72A4E70348FDF703F9C046EC14002076
:10524000C82C0110E42C011010B5002404E020004B
:10525000FFF76CFF0134E4B2032CF8D910BD70479E
:10526000012800D97047002904D0054B80000A6846
:10527000C250F7E7024B8000024A1268C250F1E7C1
:10528000E41400200C65011010B5FFF7DDFF10BD20
:1052900070B5002501231E000640184205D00029E4
:1052A00003DD05782D02013901300322130003408C
:1052B000104209D0012903DD03880239023003E0DE
:1052C000002301E00839200007290CDD0268D2180C
:1052D000934200D901320400083443689B189A4273
:1052E000F0D90133EEE71A0C1B041B0CD31803E0B2
:1052F00002889B18023902300129F9DC002904DDFB
:105300000278FF218D431543ADB2ED182B0C2D040F
:105310002D0C5B19180C1B041B0CC018002E05D09B
:1053200003061B0C020AFF201040184380B270BD18
:10533000F8B5CE46474680B50500894690461C0024
:10534000002700E02D68002D15D068686E893100B7
:10535000FFF79EFF0019040C0004000C2418F60748
:10536000F0D57B425F41FFB223061B0C220AFF24CB
:1053700014401C43E6E7002F05D023061B0C220A2D
:10538000FF2414401C434846FFF752FD24184046B2
:10539000FFF74EFD2018030C0004000C1B18180C1E
:1053A0001B041B0CC018C04380B2C0BCB946B04639
:1053B000F8BD70B51B681C04240C1B0C1C19049B45
:1053C0001B681D042D0C2C191B0C1B191C0C1B0419
:1053D0001B0CE418230C2404240C1B19FFF7A8FF52
:1053E00070BD10B582B0049C0094FFF7E2FF02B0DC
:1053F00010BD10B5FFF74CFFC04380B210BDF8B52B
:1054000005000026002400E02D68002D15D06868F6
:105410006F893900FFF73CFF0019040C0004000CF1
:105420002418FF07F0D573425E41F6B223061B0C29
:10543000220AFF2414401C43E6E7002E05D0230671
:105440001B0C220AFF2414401C43E04380B2F8BD29
:10545000014B1B681818704794B30020024B1B685F
:10546000C01A80B27047C04694B30020F8B504005B
:10547000FFF7F4FF050027883800FFF7E9FF060073
:1054800064882000FFF7E4FFFA231B019F420FD836
:105490009C420FD8AC4202D00388AB420CD1094BDE
:1054A0001B68B3420AD07388AB4209D1012000E0E7
:1054B0000020F8BD0020FCE70020FAE70120F8E713
:1054C0000020F6E798B3002070B504002B4B1B6852
:1054D000834240D82A4B1D6885423FD90379002B6F
:1054E0003FD10088FA231B0198423DD8FFF7B0FF57
:1054F000844215D00379002B12D1854210D0214B64
:105500001B68834233D000882080FA231B01984215
:1055100006D0FFF79DFF05002000FFF79FFF688082
:105520006088FFF795FF0500844213D00379002BB4
:1055300010D1144B1B68A3421CD020882880FA236A
:105540001B01984206D0FFF783FF04002800FFF7F5
:1055500085FF608070BD0C48FCF772FF0B48FCF7BC
:105560006FFF0B48FCF76CFF0A48FCF769FF054B1F
:105570001C60C8E7034B1860DFE7C04694B3002007
:1055800098B3002060190020042D01101C2D01107B
:10559000382D0110542D011070B50B4C03239C4382
:1055A0000A4B1C60FA252D0125800023638023719E
:1055B0002800FFF74DFF064B18600123037105809B
:1055C0004580044B1C6070BD9FB3002094B3002045
:1055D00098B300206019002070B5041E23D0830703
:1055E00022D10500083D164B1B68AB421FD80300B3
:1055F0000C33144A1268934219D80300083B1B79F4
:10560000002B17D02800FFF731FF002815D0083CE9
:10561000002323710C4B1B68AB4201D90A4B1D6060
:105620002800FFF751FF70BD0848FCF709FF084844
:10563000FCF706FF0748FCF703FF0748FCF700FFED
:1056400094B3002098B3002060190020802D011031
:10565000A42D0110C02D0110E82D0110F0B5C64693
:1056600000B50500CC1CA4B203239C430B2C05D928
:10567000FA231B019C4202D900253FE00C248C42F6
:1056800000D277E03C4B1B68AB423BD83B4B1B68DE
:10569000AB4237D92F00083F3800FFF7DFFE060086
:1056A0003F883B1A9BB2083B9BB298469C422CD841
:1056B00024D03800FFF7CCFE0379002B31D1FA2338
:1056C0001B019F4224D00788A419A4B20834A4B2B5
:1056D0002B4B1B6883421ED02000FFF7B9FE00232E
:1056E0000371078046802B00083B1C800088FA234A
:1056F0001B01984202D0FFF7ABFE4480280080BC1B
:10570000B846F0BD1F48FCF79BFE1F48FCF798FE0B
:105710001E48FCF795FE2000FFF79AFE184B186014
:10572000DAE7230014334345E8D8A419A4B20834B7
:10573000A4B2FA231B019F4219D02000FFF788FE74
:105740000F4B1B68834201D90D4B18600023037176
:105750002B00083B1A88028046801C800088FA23B0
:105760001B019842CAD0FFF773FE4480C6E7074882
:10577000FCF766FE0025C1E794B3002098B3002033
:10578000601900201C2E0110342E0110542E01101F
:10579000F0B5CE4600B582B0002800D182E0C61C2C
:1057A000B6B2032296430B2E05D9FA231B019E4263
:1057B00002D9002072E00C26864200D274E03B4BF6
:1057C0001B6899461800FFF749FE070031E038488A
:1057D000FCF736FE01230371A1450FD0651908358A
:1057E000344B1B689D421DD8A3071ED120000830F2
:1057F00054E04B461888FFF72BFE81464B461B7939
:10580000002B03D02B4A12684A45F2D1274A494659
:105810001160284A12684A45E0D0002BDED02648A5
:10582000FCF70EFE2548FCF70BFE2548FCF708FEAA
:10583000278801973500FA231B019B1B9F422CD21E
:105840003800FFF705FE04000379002BF0D1038830
:10585000019A9B1A083BAB42EAD32A0014329342C6
:10586000B8D3BE19B6B20836B6B2FA231B019E42AF
:10587000ADD03000FFF7ECFD0023037123880380D7
:1058800047802680012323710088FA231B01984258
:10589000A2D0FFF7DDFD46809EE7002002B080BC6D
:1058A000B946F0BD0020F9E70020F7E760190020B5
:1058B000542E011098B30020682E0110842E011080
:1058C000B42E011010B50400FEF7ACFEE3681C68AE
:1058D000002C0AD022681A60A30703D1FEF7A4FEA9
:1058E000200010BD0248FCF7ABFDFEF79DFEF7E778
:1058F000E42E011070B505000C008B0709D1FEF7EE
:1059000091FEEB681B682360EB681C60FEF78CFE61
:1059100070BD0148FCF794FD082F0110C3680022F8
:105920001A608368033303329343002207E0C1689F
:1059300009681960C1680B6081885B180132C188F1
:105940009142F4DC7047000010B5002406E0054BDE
:10595000A200D058FFF7E2FF0134A4B2082CF6D918
:1059600010BDC046CC62011010B5082805D8054B03
:105970008000C058FFF7A6FF10BD0348FEF756FC95
:105980000020F9E7CC620110282F011010B508287B
:1059900007D8002904D0054B8000C058FFF7AAFFA4
:1059A00010BD0348FEF742FCFAE7C046CC62011086
:1059B000482F01100B688268934202D08360012057
:1059C00070470020FCE70B68C268934202D0C360B6
:1059D000012070470020FCE70C204042704770B562
:1059E00004000D0001F028F92900200004F0EEFE6B
:1059F0002900200000F034FE70BD000010B5002822
:105A00000DD03923C25C343B1340052B06D1C907A6
:105A100004D54368002B01D0120703D410BD0348FE
:105A2000FCF70EFD011D06F0ADFAF7E7C82F0110D7
:105A300030B583B005000C001000002908D0002A02
:105A400009D00A686B689A4208D1002003B030BDC3
:105A50000B48FCF7F5FC0A48FCF7F2FC01920360E6
:105A600001A9FFF7BCFF23686B6001212800FFF745
:105A7000C5FFEB69002B01D0280098470120E5E71E
:105A8000EC2F011070470000F0B5C64600B582B09B
:105A900005000C0017001E00002920D0002F20D088
:105AA000002E20D0002C02D02368002B1DD101AA8B
:105AB00021002800FFF7BCFF01239846002239008F
:105AC0002800FFF777FF002231002800FFF77BFF57
:105AD0004346002B0CD002B080BCB846F0BD074C4A
